{
  "contractName": "Insurance",
  "abi": [
    {
      "inputs": [],
      "payable": false,
      "stateMutability": "nonpayable",
      "type": "constructor"
    },
    {
      "anonymous": false,
      "inputs": [
        {
          "indexed": false,
          "internalType": "address",
          "name": "",
          "type": "address"
        },
        {
          "indexed": false,
          "internalType": "string",
          "name": "",
          "type": "string"
        }
      ],
      "name": "clientAdded",
      "type": "event"
    },
    {
      "anonymous": false,
      "inputs": [
        {
          "indexed": false,
          "internalType": "address",
          "name": "",
          "type": "address"
        },
        {
          "indexed": false,
          "internalType": "string",
          "name": "",
          "type": "string"
        }
      ],
      "name": "medicalProfessionalAdded",
      "type": "event"
    },
    {
      "anonymous": false,
      "inputs": [
        {
          "indexed": false,
          "internalType": "address",
          "name": "",
          "type": "address"
        },
        {
          "indexed": false,
          "internalType": "string",
          "name": "",
          "type": "string"
        }
      ],
      "name": "verifierAdded",
      "type": "event"
    },
    {
      "constant": true,
      "inputs": [],
      "name": "admin",
      "outputs": [
        {
          "internalType": "address",
          "name": "",
          "type": "address"
        }
      ],
      "payable": false,
      "stateMutability": "view",
      "type": "function"
    },
    {
      "constant": true,
      "inputs": [],
      "name": "nextClientId",
      "outputs": [
        {
          "internalType": "uint256",
          "name": "",
          "type": "uint256"
        }
      ],
      "payable": false,
      "stateMutability": "view",
      "type": "function"
    },
    {
      "constant": true,
      "inputs": [],
      "name": "nextDiseaseId",
      "outputs": [
        {
          "internalType": "uint256",
          "name": "",
          "type": "uint256"
        }
      ],
      "payable": false,
      "stateMutability": "view",
      "type": "function"
    },
    {
      "constant": true,
      "inputs": [],
      "name": "nextMedicalProfessionalId",
      "outputs": [
        {
          "internalType": "uint256",
          "name": "",
          "type": "uint256"
        }
      ],
      "payable": false,
      "stateMutability": "view",
      "type": "function"
    },
    {
      "constant": true,
      "inputs": [],
      "name": "nextVerifierId",
      "outputs": [
        {
          "internalType": "uint256",
          "name": "",
          "type": "uint256"
        }
      ],
      "payable": false,
      "stateMutability": "view",
      "type": "function"
    },
    {
      "constant": false,
      "inputs": [
        {
          "internalType": "address",
          "name": "_verifierAddress",
          "type": "address"
        },
        {
          "internalType": "string",
          "name": "_name",
          "type": "string"
        }
      ],
      "name": "addVerifier",
      "outputs": [],
      "payable": false,
      "stateMutability": "nonpayable",
      "type": "function"
    },
    {
      "constant": false,
      "inputs": [
        {
          "internalType": "address",
          "name": "_medicalProfessional",
          "type": "address"
        },
        {
          "internalType": "string",
          "name": "_name",
          "type": "string"
        }
      ],
      "name": "addMedicalProfessional",
      "outputs": [],
      "payable": false,
      "stateMutability": "nonpayable",
      "type": "function"
    },
    {
      "constant": false,
      "inputs": [
        {
          "internalType": "address",
          "name": "_clientAddress",
          "type": "address"
        },
        {
          "internalType": "string",
          "name": "_name",
          "type": "string"
        }
      ],
      "name": "addClient",
      "outputs": [],
      "payable": false,
      "stateMutability": "nonpayable",
      "type": "function"
    },
    {
      "constant": false,
      "inputs": [
        {
          "internalType": "address",
          "name": "_clientAddress",
          "type": "address"
        }
      ],
      "name": "registerClient",
      "outputs": [],
      "payable": false,
      "stateMutability": "nonpayable",
      "type": "function"
    }
  ],
  "bytecode": "0x608060405234801561001057600080fd5b50336000806101000a81548173ffffffffffffffffffffffffffffffffffffffff021916908373ffffffffffffffffffffffffffffffffffffffff1602179055506040518060600160405280600081526020016040518060400160405280600581526020017f61646d696e000000000000000000000000000000000000000000000000000000815250815260200160011515815250600760008060009054906101000a900473ffffffffffffffffffffffffffffffffffffffff1673ffffffffffffffffffffffffffffffffffffffff1673ffffffffffffffffffffffffffffffffffffffff16815260200190815260200160002060008201518160000155602082015181600101908051906020019061012b929190610174565b5060408201518160020160006101000a81548160ff0219169083151502179055509050506000600181905550600060028190555060006003819055506001600481905550610219565b828054600181600116156101000203166002900490600052602060002090601f016020900481019282601f106101b557805160ff19168380011785556101e3565b828001600101855582156101e3579182015b828111156101e25782518255916020019190600101906101c7565b5b5090506101f091906101f4565b5090565b61021691905b808211156102125760008160009055506001016101fa565b5090565b90565b610ac8806102286000396000f3fe608060405234801561001057600080fd5b50600436106100935760003560e01c80637340792a116100665780637340792a146101365780637816e2ed146101cf578063cc1e343d146101ed578063e292ec0814610286578063f851a4401461031f57610093565b8063305003af1461009857806342a67b7f146100b65780634b24bed3146100fa57806351911c5214610118575b600080fd5b6100a0610369565b6040518082815260200191505060405180910390f35b6100f8600480360360208110156100cc57600080fd5b81019080803573ffffffffffffffffffffffffffffffffffffffff16906020019092919050505061036f565b005b61010261042d565b6040518082815260200191505060405180910390f35b610120610433565b6040518082815260200191505060405180910390f35b6101cd6004803603604081101561014c57600080fd5b81019080803573ffffffffffffffffffffffffffffffffffffffff1690602001909291908035906020019064010000000081111561018957600080fd5b82018360208201111561019b57600080fd5b803590602001918460018302840111640100000000831117156101bd57600080fd5b9091929391929390505050610439565b005b6101d761062d565b6040518082815260200191505060405180910390f35b6102846004803603604081101561020357600080fd5b81019080803573ffffffffffffffffffffffffffffffffffffffff1690602001909291908035906020019064010000000081111561024057600080fd5b82018360208201111561025257600080fd5b8035906020019184600183028401116401000000008311171561027457600080fd5b9091929391929390505050610633565b005b61031d6004803603604081101561029c57600080fd5b81019080803573ffffffffffffffffffffffffffffffffffffffff169060200190929190803590602001906401000000008111156102d957600080fd5b8201836020820111156102eb57600080fd5b8035906020019184600183028401116401000000008311171561030d57600080fd5b909192939192939050505061082e565b005b6103276109c9565b604051808273ffffffffffffffffffffffffffffffffffffffff1673ffffffffffffffffffffffffffffffffffffffff16815260200191505060405180910390f35b60015481565b60011515600760003373ffffffffffffffffffffffffffffffffffffffff1673ffffffffffffffffffffffffffffffffffffffff16815260200190815260200160002060020160009054906101000a900460ff161515146103cf57600080fd5b6001600560008373ffffffffffffffffffffffffffffffffffffffff1673ffffffffffffffffffffffffffffffffffffffff16815260200190815260200160002060020160006101000a81548160ff02191690831515021790555050565b60025481565b60045481565b6000809054906101000a900473ffffffffffffffffffffffffffffffffffffffff1673ffffffffffffffffffffffffffffffffffffffff163373ffffffffffffffffffffffffffffffffffffffff161461049257600080fd5b6040518060600160405280600454815260200183838080601f016020809104026020016040519081016040528093929190818152602001838380828437600081840152601f19601f82011690508083019250505050505050815260200160011515815250600760008573ffffffffffffffffffffffffffffffffffffffff1673ffffffffffffffffffffffffffffffffffffffff16815260200190815260200160002060008201518160000155602082015181600101908051906020019061055b9291906109ee565b5060408201518160020160006101000a81548160ff0219169083151502179055509050506004600081548092919060010191905055507f091ec265859134cc9a2741e5c9db3d5af948729b8a9b8b82e5fb6c0b1b3c33ce838383604051808473ffffffffffffffffffffffffffffffffffffffff1673ffffffffffffffffffffffffffffffffffffffff168152602001806020018281038252848482818152602001925080828437600081840152601f19601f82011690508083019250505094505050505060405180910390a1505050565b60035481565b60011515600760003373ffffffffffffffffffffffffffffffffffffffff1673ffffffffffffffffffffffffffffffffffffffff16815260200190815260200160002060020160009054906101000a900460ff1615151461069357600080fd5b6040518060600160405280600254815260200183838080601f016020809104026020016040519081016040528093929190818152602001838380828437600081840152601f19601f82011690508083019250505050505050815260200160011515815250600660008573ffffffffffffffffffffffffffffffffffffffff1673ffffffffffffffffffffffffffffffffffffffff16815260200190815260200160002060008201518160000155602082015181600101908051906020019061075c9291906109ee565b5060408201518160020160006101000a81548160ff0219169083151502179055509050506002600081548092919060010191905055507f68593e4d61246bde2a47f3415c9be3989f7cf137d7edc265334c0b5480b464a8838383604051808473ffffffffffffffffffffffffffffffffffffffff1673ffffffffffffffffffffffffffffffffffffffff168152602001806020018281038252848482818152602001925080828437600081840152601f19601f82011690508083019250505094505050505060405180910390a1505050565b6040518060600160405280600354815260200183838080601f016020809104026020016040519081016040528093929190818152602001838380828437600081840152601f19601f82011690508083019250505050505050815260200160001515815250600560008573ffffffffffffffffffffffffffffffffffffffff1673ffffffffffffffffffffffffffffffffffffffff1681526020019081526020016000206000820151816000015560208201518160010190805190602001906108f79291906109ee565b5060408201518160020160006101000a81548160ff0219169083151502179055509050506003600081548092919060010191905055507f3ba4296f289d413922cca0174f788da230ef695479ffb88cdb0350e80e46f4c2838383604051808473ffffffffffffffffffffffffffffffffffffffff1673ffffffffffffffffffffffffffffffffffffffff168152602001806020018281038252848482818152602001925080828437600081840152601f19601f82011690508083019250505094505050505060405180910390a1505050565b6000809054906101000a900473ffffffffffffffffffffffffffffffffffffffff1681565b828054600181600116156101000203166002900490600052602060002090601f016020900481019282601f10610a2f57805160ff1916838001178555610a5d565b82800160010185558215610a5d579182015b82811115610a5c578251825591602001919060010190610a41565b5b509050610a6a9190610a6e565b5090565b610a9091905b80821115610a8c576000816000905550600101610a74565b5090565b9056fea265627a7a72315820fed7aa9792f84a0134b84c07bfa41d3bfaf986cd721d24527ac999357ddcc57264736f6c634300050c0032",
  "source": "pragma solidity ^0.5.0;\n\ncontract Insurance{\n    struct Disease{\n        uint id;\n        string name;\n    }\n    \n    struct Client{\n        uint id;\n        string name;\n        bool verified;\n    }\n    \n    struct MedicalProfessional{\n        uint id;\n        string name;\n        bool valid;\n    }\n    \n    struct Verifier{\n        uint id;\n        string name;\n        bool valid;\n    }\n    address public admin;\n    \n    uint public nextDiseaseId;\n    uint public nextMedicalProfessionalId;\n    uint public nextClientId;\n    uint public nextVerifierId;\n    \n    mapping(address => Client) clients;\n    mapping(address => MedicalProfessional) medicalProfessionals;\n    mapping(address => Verifier) verifiers;\n    \n    event clientAdded(address, string);\n    event medicalProfessionalAdded(address, string);\n    event verifierAdded(address, string);\n    \n    constructor() public{\n        admin = msg.sender;\n        verifiers[admin] = Verifier(0, \"admin\", true);\n        \n        nextDiseaseId = 0;\n        nextMedicalProfessionalId = 0;\n        nextClientId = 0;\n        nextVerifierId = 1;\n    }\n    \n    function addVerifier(address _verifierAddress, string calldata _name) external onlyAdmin(){\n        verifiers[_verifierAddress] = Verifier(nextVerifierId, _name, true);\n        nextVerifierId++;\n        emit verifierAdded(_verifierAddress, _name);\n    }\n    \n    function addMedicalProfessional(address _medicalProfessional, \n        string calldata _name) external onlyVerifier(){\n        medicalProfessionals[_medicalProfessional] = MedicalProfessional(nextMedicalProfessionalId, _name, true);\n        nextMedicalProfessionalId++;\n        emit medicalProfessionalAdded(_medicalProfessional, _name);\n    }\n    \n    function addClient(address _clientAddress, string calldata _name) external{\n        clients[_clientAddress] = Client(nextClientId, _name, false);\n        nextClientId++;\n        emit clientAdded(_clientAddress, _name);\n    }\n    \n    function registerClient(address _clientAddress)external onlyVerifier(){\n        clients[_clientAddress].verified = true;\n    }\n    \n    modifier onlyAdmin(){\n        require(msg.sender == admin);\n        _;\n    }\n    \n    modifier onlyVerifier(){\n        require(verifiers[msg.sender].valid == true);\n        _;\n    }\n    \n    modifier onlyMedicalProfessional(){\n        require(medicalProfessionals[msg.sender].valid == true, \"only medical professional allowed\");\n        _;\n    }\n    \n    modifier registeredClient(){\n        require(clients[msg.sender].verified == true);\n        _;\n    }\n}",
  "sourcePath": "/home/abhinav/Desktop/apps/Whisleblower-DAPP-master/contracts/Insurance.sol",
  "compiler": {
    "name": "solc",
    "version": "0.5.12+commit.7709ece9.Emscripten.clang"
  },
  "schemaVersion": "3.0.19",
  "updatedAt": "2019-11-16T10:07:09.164Z",
  "networkType": "ethereum",
  "devdoc": {
    "methods": {}
  },
  "userdoc": {
    "methods": {}
  }
}