{
  "contractName": "Insurance",
  "abi": [
    {
      "inputs": [],
      "payable": false,
      "stateMutability": "nonpayable",
      "type": "constructor"
    },
    {
      "anonymous": false,
      "inputs": [
        {
          "indexed": false,
          "internalType": "uint256",
          "name": "",
          "type": "uint256"
        },
        {
          "indexed": false,
          "internalType": "address",
          "name": "",
          "type": "address"
        },
        {
          "indexed": false,
          "internalType": "uint256",
          "name": "",
          "type": "uint256"
        }
      ],
      "name": "claimCreated",
      "type": "event"
    },
    {
      "anonymous": false,
      "inputs": [
        {
          "indexed": false,
          "internalType": "address",
          "name": "",
          "type": "address"
        },
        {
          "indexed": false,
          "internalType": "string",
          "name": "",
          "type": "string"
        },
        {
          "indexed": false,
          "internalType": "string",
          "name": "",
          "type": "string"
        }
      ],
      "name": "clientAdded",
      "type": "event"
    },
    {
      "anonymous": false,
      "inputs": [
        {
          "indexed": false,
          "internalType": "address",
          "name": "",
          "type": "address"
        },
        {
          "indexed": false,
          "internalType": "string",
          "name": "",
          "type": "string"
        }
      ],
      "name": "medicalProfessionalAdded",
      "type": "event"
    },
    {
      "anonymous": false,
      "inputs": [
        {
          "indexed": false,
          "internalType": "address",
          "name": "",
          "type": "address"
        },
        {
          "indexed": false,
          "internalType": "string",
          "name": "",
          "type": "string"
        }
      ],
      "name": "verifierAdded",
      "type": "event"
    },
    {
      "constant": true,
      "inputs": [],
      "name": "admin",
      "outputs": [
        {
          "internalType": "address",
          "name": "",
          "type": "address"
        }
      ],
      "payable": false,
      "stateMutability": "view",
      "type": "function"
    },
    {
      "constant": true,
      "inputs": [
        {
          "internalType": "uint256",
          "name": "",
          "type": "uint256"
        }
      ],
      "name": "claims",
      "outputs": [
        {
          "internalType": "uint256",
          "name": "id",
          "type": "uint256"
        },
        {
          "internalType": "address",
          "name": "claimant",
          "type": "address"
        },
        {
          "internalType": "int256",
          "name": "state",
          "type": "int256"
        },
        {
          "internalType": "string",
          "name": "file",
          "type": "string"
        }
      ],
      "payable": false,
      "stateMutability": "view",
      "type": "function"
    },
    {
      "constant": true,
      "inputs": [
        {
          "internalType": "address",
          "name": "",
          "type": "address"
        }
      ],
      "name": "clients",
      "outputs": [
        {
          "internalType": "uint256",
          "name": "id",
          "type": "uint256"
        },
        {
          "internalType": "string",
          "name": "name",
          "type": "string"
        },
        {
          "internalType": "bool",
          "name": "verified",
          "type": "bool"
        },
        {
          "internalType": "string",
          "name": "caddress",
          "type": "string"
        }
      ],
      "payable": false,
      "stateMutability": "view",
      "type": "function"
    },
    {
      "constant": true,
      "inputs": [
        {
          "internalType": "address",
          "name": "",
          "type": "address"
        }
      ],
      "name": "medicalProfessionals",
      "outputs": [
        {
          "internalType": "uint256",
          "name": "id",
          "type": "uint256"
        },
        {
          "internalType": "string",
          "name": "name",
          "type": "string"
        },
        {
          "internalType": "bool",
          "name": "valid",
          "type": "bool"
        }
      ],
      "payable": false,
      "stateMutability": "view",
      "type": "function"
    },
    {
      "constant": true,
      "inputs": [],
      "name": "nextClaimId",
      "outputs": [
        {
          "internalType": "uint256",
          "name": "",
          "type": "uint256"
        }
      ],
      "payable": false,
      "stateMutability": "view",
      "type": "function"
    },
    {
      "constant": true,
      "inputs": [],
      "name": "nextClientId",
      "outputs": [
        {
          "internalType": "uint256",
          "name": "",
          "type": "uint256"
        }
      ],
      "payable": false,
      "stateMutability": "view",
      "type": "function"
    },
    {
      "constant": true,
      "inputs": [],
      "name": "nextDiseaseId",
      "outputs": [
        {
          "internalType": "uint256",
          "name": "",
          "type": "uint256"
        }
      ],
      "payable": false,
      "stateMutability": "view",
      "type": "function"
    },
    {
      "constant": true,
      "inputs": [],
      "name": "nextMedicalProfessionalId",
      "outputs": [
        {
          "internalType": "uint256",
          "name": "",
          "type": "uint256"
        }
      ],
      "payable": false,
      "stateMutability": "view",
      "type": "function"
    },
    {
      "constant": true,
      "inputs": [],
      "name": "nextVerifierId",
      "outputs": [
        {
          "internalType": "uint256",
          "name": "",
          "type": "uint256"
        }
      ],
      "payable": false,
      "stateMutability": "view",
      "type": "function"
    },
    {
      "constant": true,
      "inputs": [
        {
          "internalType": "address",
          "name": "",
          "type": "address"
        }
      ],
      "name": "verifiers",
      "outputs": [
        {
          "internalType": "uint256",
          "name": "id",
          "type": "uint256"
        },
        {
          "internalType": "string",
          "name": "name",
          "type": "string"
        },
        {
          "internalType": "bool",
          "name": "valid",
          "type": "bool"
        }
      ],
      "payable": false,
      "stateMutability": "view",
      "type": "function"
    },
    {
      "constant": false,
      "inputs": [
        {
          "internalType": "address",
          "name": "_verifierAddress",
          "type": "address"
        },
        {
          "internalType": "string",
          "name": "_name",
          "type": "string"
        }
      ],
      "name": "addVerifier",
      "outputs": [],
      "payable": false,
      "stateMutability": "nonpayable",
      "type": "function"
    },
    {
      "constant": false,
      "inputs": [
        {
          "internalType": "address",
          "name": "_medicalProfessional",
          "type": "address"
        },
        {
          "internalType": "string",
          "name": "_name",
          "type": "string"
        }
      ],
      "name": "addMedicalProfessional",
      "outputs": [],
      "payable": false,
      "stateMutability": "nonpayable",
      "type": "function"
    },
    {
      "constant": false,
      "inputs": [
        {
          "internalType": "address",
          "name": "_clientAddress",
          "type": "address"
        },
        {
          "internalType": "string",
          "name": "_name",
          "type": "string"
        },
        {
          "internalType": "string",
          "name": "_caddress",
          "type": "string"
        }
      ],
      "name": "addClient",
      "outputs": [],
      "payable": false,
      "stateMutability": "nonpayable",
      "type": "function"
    },
    {
      "constant": false,
      "inputs": [
        {
          "internalType": "address",
          "name": "_clientAddress",
          "type": "address"
        }
      ],
      "name": "registerClient",
      "outputs": [],
      "payable": false,
      "stateMutability": "nonpayable",
      "type": "function"
    },
    {
      "constant": false,
      "inputs": [
        {
          "internalType": "string",
          "name": "_file",
          "type": "string"
        }
      ],
      "name": "createClaim",
      "outputs": [],
      "payable": false,
      "stateMutability": "nonpayable",
      "type": "function"
    },
    {
      "constant": false,
      "inputs": [
        {
          "internalType": "uint256",
          "name": "id",
          "type": "uint256"
        }
      ],
      "name": "checkClaim",
      "outputs": [],
      "payable": false,
      "stateMutability": "nonpayable",
      "type": "function"
    },
    {
      "constant": false,
      "inputs": [
        {
          "internalType": "uint256",
          "name": "id",
          "type": "uint256"
        }
      ],
      "name": "rejectClaimMedical",
      "outputs": [],
      "payable": false,
      "stateMutability": "nonpayable",
      "type": "function"
    },
    {
      "constant": false,
      "inputs": [
        {
          "internalType": "uint256",
          "name": "id",
          "type": "uint256"
        }
      ],
      "name": "approveClaim",
      "outputs": [],
      "payable": false,
      "stateMutability": "nonpayable",
      "type": "function"
    },
    {
      "constant": false,
      "inputs": [
        {
          "internalType": "uint256",
          "name": "id",
          "type": "uint256"
        }
      ],
      "name": "rejectClaimVerifier",
      "outputs": [],
      "payable": false,
      "stateMutability": "nonpayable",
      "type": "function"
    }
  ],
  "bytecode": "0x60806040523480156200001157600080fd5b50336000806101000a81548173ffffffffffffffffffffffffffffffffffffffff021916908373ffffffffffffffffffffffffffffffffffffffff1602179055506040518060600160405280600081526020016040518060400160405280600581526020017f61646d696e000000000000000000000000000000000000000000000000000000815250815260200160011515815250600860008060009054906101000a900473ffffffffffffffffffffffffffffffffffffffff1673ffffffffffffffffffffffffffffffffffffffff1673ffffffffffffffffffffffffffffffffffffffff1681526020019081526020016000206000820151816000015560208201518160010190805190602001906200012e92919062000180565b5060408201518160020160006101000a81548160ff021916908315150217905550905050600060018190555060006002819055506000600381905550600160048190555060006005819055506200022f565b828054600181600116156101000203166002900490600052602060002090601f016020900481019282601f10620001c357805160ff1916838001178555620001f4565b82800160010185558215620001f4579182015b82811115620001f3578251825591602001919060010190620001d6565b5b50905062000203919062000207565b5090565b6200022c91905b80821115620002285760008160009055506001016200020e565b5090565b90565b6119f6806200023f6000396000f3fe608060405234801561001057600080fd5b50600436106101215760003560e01c80637816e2ed116100ad578063a888c2cd11610071578063a888c2cd14610675578063b17f71801461075d578063cc1e343d1461084b578063efab1619146108e4578063f851a4401461091257610121565b80637816e2ed146104c35780637b3dd266146104e157806384c08ed31461050f578063865be76c14610588578063a0021cf11461065757610121565b80634b24bed3116100f45780634b24bed3146101e457806351911c521461020257806361eed2a9146102205780636c8244871461035b5780637340792a1461042a57610121565b80631681d15814610126578063305003af1461015457806342a67b7f1461017257806346e30135146101b6575b600080fd5b6101526004803603602081101561013c57600080fd5b810190808035906020019092919050505061095c565b005b61015c610a4a565b6040518082815260200191505060405180910390f35b6101b46004803603602081101561018857600080fd5b81019080803573ffffffffffffffffffffffffffffffffffffffff169060200190929190505050610a50565b005b6101e2600480360360208110156101cc57600080fd5b8101908080359060200190929190505050610b0e565b005b6101ec610bb0565b6040518082815260200191505060405180910390f35b61020a610bb6565b6040518082815260200191505060405180910390f35b6102626004803603602081101561023657600080fd5b81019080803573ffffffffffffffffffffffffffffffffffffffff169060200190929190505050610bbc565b60405180858152602001806020018415151515815260200180602001838103835286818151815260200191508051906020019080838360005b838110156102b657808201518184015260208101905061029b565b50505050905090810190601f1680156102e35780820380516001836020036101000a031916815260200191505b50838103825284818151815260200191508051906020019080838360005b8381101561031c578082015181840152602081019050610301565b50505050905090810190601f1680156103495780820380516001836020036101000a031916815260200191505b50965050505050505060405180910390f35b61039d6004803603602081101561037157600080fd5b81019080803573ffffffffffffffffffffffffffffffffffffffff169060200190929190505050610d29565b604051808481526020018060200183151515158152602001828103825284818151815260200191508051906020019080838360005b838110156103ed5780820151818401526020810190506103d2565b50505050905090810190601f16801561041a5780820380516001836020036101000a031916815260200191505b5094505050505060405180910390f35b6104c16004803603604081101561044057600080fd5b81019080803573ffffffffffffffffffffffffffffffffffffffff1690602001909291908035906020019064010000000081111561047d57600080fd5b82018360208201111561048f57600080fd5b803590602001918460018302840111640100000000831117156104b157600080fd5b9091929391929390505050610df8565b005b6104cb610fec565b6040518082815260200191505060405180910390f35b61050d600480360360208110156104f757600080fd5b8101908080359060200190929190505050610ff2565b005b6105866004803603602081101561052557600080fd5b810190808035906020019064010000000081111561054257600080fd5b82018360208201111561055457600080fd5b8035906020019184600183028401116401000000008311171561057657600080fd5b9091929391929390505050611055565b005b6105ca6004803603602081101561059e57600080fd5b81019080803573ffffffffffffffffffffffffffffffffffffffff1690602001909291905050506111d9565b604051808481526020018060200183151515158152602001828103825284818151815260200191508051906020019080838360005b8381101561061a5780820151818401526020810190506105ff565b50505050905090810190601f1680156106475780820380516001836020036101000a031916815260200191505b5094505050505060405180910390f35b61065f6112a8565b6040518082815260200191505060405180910390f35b6106a16004803603602081101561068b57600080fd5b81019080803590602001909291905050506112ae565b604051808581526020018473ffffffffffffffffffffffffffffffffffffffff1673ffffffffffffffffffffffffffffffffffffffff16815260200183815260200180602001828103825283818151815260200191508051906020019080838360005b8381101561071f578082015181840152602081019050610704565b50505050905090810190601f16801561074c5780820380516001836020036101000a031916815260200191505b509550505050505060405180910390f35b6108496004803603606081101561077357600080fd5b81019080803573ffffffffffffffffffffffffffffffffffffffff169060200190929190803590602001906401000000008111156107b057600080fd5b8201836020820111156107c257600080fd5b803590602001918460018302840111640100000000831117156107e457600080fd5b90919293919293908035906020019064010000000081111561080557600080fd5b82018360208201111561081757600080fd5b8035906020019184600183028401116401000000008311171561083957600080fd5b9091929391929390505050611396565b005b6108e26004803603604081101561086157600080fd5b81019080803573ffffffffffffffffffffffffffffffffffffffff1690602001909291908035906020019064010000000081111561089e57600080fd5b8201836020820111156108b057600080fd5b803590602001918460018302840111640100000000831117156108d257600080fd5b90919293919293905050506115ce565b005b610910600480360360208110156108fa57600080fd5b81019080803590602001909291905050506117c9565b005b61091a6118d6565b604051808273ffffffffffffffffffffffffffffffffffffffff1673ffffffffffffffffffffffffffffffffffffffff16815260200191505060405180910390f35b60011515600760003373ffffffffffffffffffffffffffffffffffffffff1673ffffffffffffffffffffffffffffffffffffffff16815260200190815260200160002060020160009054906101000a900460ff16151514610a08576040517f08c379a00000000000000000000000000000000000000000000000000000000081526004018080602001828103825260218152602001806119a16021913960400191505060405180910390fd5b6000600960008381526020019081526020016000206002015414610a2b57600080fd5b6001600960008381526020019081526020016000206002018190555050565b60015481565b60011515600860003373ffffffffffffffffffffffffffffffffffffffff1673ffffffffffffffffffffffffffffffffffffffff16815260200190815260200160002060020160009054906101000a900460ff16151514610ab057600080fd5b6001600660008373ffffffffffffffffffffffffffffffffffffffff1673ffffffffffffffffffffffffffffffffffffffff16815260200190815260200160002060020160006101000a81548160ff02191690831515021790555050565b60011515600860003373ffffffffffffffffffffffffffffffffffffffff1673ffffffffffffffffffffffffffffffffffffffff16815260200190815260200160002060020160009054906101000a900460ff16151514610b6e57600080fd5b6001600960008381526020019081526020016000206002015414610b9157600080fd5b6002600960008381526020019081526020016000206002018190555050565b60025481565b60045481565b6006602052806000526040600020600091509050806000015490806001018054600181600116156101000203166002900480601f016020809104026020016040519081016040528092919081815260200182805460018160011615610100020316600290048015610c6e5780601f10610c4357610100808354040283529160200191610c6e565b820191906000526020600020905b815481529060010190602001808311610c5157829003601f168201915b5050505050908060020160009054906101000a900460ff1690806003018054600181600116156101000203166002900480601f016020809104026020016040519081016040528092919081815260200182805460018160011615610100020316600290048015610d1f5780601f10610cf457610100808354040283529160200191610d1f565b820191906000526020600020905b815481529060010190602001808311610d0257829003601f168201915b5050505050905084565b6008602052806000526040600020600091509050806000015490806001018054600181600116156101000203166002900480601f016020809104026020016040519081016040528092919081815260200182805460018160011615610100020316600290048015610ddb5780601f10610db057610100808354040283529160200191610ddb565b820191906000526020600020905b815481529060010190602001808311610dbe57829003601f168201915b5050505050908060020160009054906101000a900460ff16905083565b6000809054906101000a900473ffffffffffffffffffffffffffffffffffffffff1673ffffffffffffffffffffffffffffffffffffffff163373ffffffffffffffffffffffffffffffffffffffff1614610e5157600080fd5b6040518060600160405280600454815260200183838080601f016020809104026020016040519081016040528093929190818152602001838380828437600081840152601f19601f82011690508083019250505050505050815260200160011515815250600860008573ffffffffffffffffffffffffffffffffffffffff1673ffffffffffffffffffffffffffffffffffffffff168152602001908152602001600020600082015181600001556020820151816001019080519060200190610f1a9291906118fb565b5060408201518160020160006101000a81548160ff0219169083151502179055509050506004600081548092919060010191905055507f091ec265859134cc9a2741e5c9db3d5af948729b8a9b8b82e5fb6c0b1b3c33ce838383604051808473ffffffffffffffffffffffffffffffffffffffff1673ffffffffffffffffffffffffffffffffffffffff168152602001806020018281038252848482818152602001925080828437600081840152601f19601f82011690508083019250505094505050505060405180910390a1505050565b60035481565b60011515600860003373ffffffffffffffffffffffffffffffffffffffff1673ffffffffffffffffffffffffffffffffffffffff16815260200190815260200160002060020160009054906101000a900460ff1615151461105257600080fd5b50565b60011515600660003373ffffffffffffffffffffffffffffffffffffffff1673ffffffffffffffffffffffffffffffffffffffff16815260200190815260200160002060020160009054906101000a900460ff161515146110b557600080fd5b604051806080016040528060055481526020013373ffffffffffffffffffffffffffffffffffffffff1681526020016000815260200183838080601f016020809104026020016040519081016040528093929190818152602001838380828437600081840152601f19601f820116905080830192505050505050508152506009600060055481526020019081526020016000206000820151816000015560208201518160010160006101000a81548173ffffffffffffffffffffffffffffffffffffffff021916908373ffffffffffffffffffffffffffffffffffffffff1602179055506040820151816002015560608201518160030190805190602001906111bf9291906118fb565b509050506005600081548092919060010191905055505050565b6007602052806000526040600020600091509050806000015490806001018054600181600116156101000203166002900480601f01602080910402602001604051908101604052809291908181526020018280546001816001161561010002031660029004801561128b5780601f106112605761010080835404028352916020019161128b565b820191906000526020600020905b81548152906001019060200180831161126e57829003601f168201915b5050505050908060020160009054906101000a900460ff16905083565b60055481565b60096020528060005260406000206000915090508060000154908060010160009054906101000a900473ffffffffffffffffffffffffffffffffffffffff1690806002015490806003018054600181600116156101000203166002900480601f01602080910402602001604051908101604052809291908181526020018280546001816001161561010002031660029004801561138c5780601f106113615761010080835404028352916020019161138c565b820191906000526020600020905b81548152906001019060200180831161136f57829003601f168201915b5050505050905084565b6040518060800160405280600354815260200185858080601f016020809104026020016040519081016040528093929190818152602001838380828437600081840152601f19601f82011690508083019250505050505050815260200160001515815260200183838080601f016020809104026020016040519081016040528093929190818152602001838380828437600081840152601f19601f82011690508083019250505050505050815250600660008773ffffffffffffffffffffffffffffffffffffffff1673ffffffffffffffffffffffffffffffffffffffff1681526020019081526020016000206000820151816000015560208201518160010190805190602001906114a99291906118fb565b5060408201518160020160006101000a81548160ff02191690831515021790555060608201518160030190805190602001906114e69291906118fb565b509050506003600081548092919060010191905055507f6daa8f346a7923aaedeb4240dd3a000f2bc3613ae6a80bda18a12207bc02e3858585858585604051808673ffffffffffffffffffffffffffffffffffffffff1673ffffffffffffffffffffffffffffffffffffffff16815260200180602001806020018381038352878782818152602001925080828437600081840152601f19601f8201169050808301925050508381038252858582818152602001925080828437600081840152601f19601f82011690508083019250505097505050505050505060405180910390a15050505050565b60011515600860003373ffffffffffffffffffffffffffffffffffffffff1673ffffffffffffffffffffffffffffffffffffffff16815260200190815260200160002060020160009054906101000a900460ff1615151461162e57600080fd5b6040518060600160405280600254815260200183838080601f016020809104026020016040519081016040528093929190818152602001838380828437600081840152601f19601f82011690508083019250505050505050815260200160011515815250600760008573ffffffffffffffffffffffffffffffffffffffff1673ffffffffffffffffffffffffffffffffffffffff1681526020019081526020016000206000820151816000015560208201518160010190805190602001906116f79291906118fb565b5060408201518160020160006101000a81548160ff0219169083151502179055509050506002600081548092919060010191905055507f68593e4d61246bde2a47f3415c9be3989f7cf137d7edc265334c0b5480b464a8838383604051808473ffffffffffffffffffffffffffffffffffffffff1673ffffffffffffffffffffffffffffffffffffffff168152602001806020018281038252848482818152602001925080828437600081840152601f19601f82011690508083019250505094505050505060405180910390a1505050565b60011515600760003373ffffffffffffffffffffffffffffffffffffffff1673ffffffffffffffffffffffffffffffffffffffff16815260200190815260200160002060020160009054906101000a900460ff16151514611875576040517f08c379a00000000000000000000000000000000000000000000000000000000081526004018080602001828103825260218152602001806119a16021913960400191505060405180910390fd5b600060096000838152602001908152602001600020600201541461189857600080fd5b7fffffffffffffffffffffffffffffffffffffffffffffffffffffffffffffffff600960008381526020019081526020016000206002018190555050565b6000809054906101000a900473ffffffffffffffffffffffffffffffffffffffff1681565b828054600181600116156101000203166002900490600052602060002090601f016020900481019282601f1061193c57805160ff191683800117855561196a565b8280016001018555821561196a579182015b8281111561196957825182559160200191906001019061194e565b5b509050611977919061197b565b5090565b61199d91905b80821115611999576000816000905550600101611981565b5090565b9056fe6f6e6c79206d65646963616c2070726f66657373696f6e616c20616c6c6f776564a265627a7a7231582060a7ef7a7366718a881a43878436d9743e1c72609dd551e3727992d14f53621364736f6c634300050c0032",
  "source": "pragma solidity ^0.5.0;\n\ncontract Insurance{\n    struct Disease{\n        uint id;\n        string name;\n    }\n    \n    struct Client{\n        uint id;\n        string name;\n        bool verified;\n        \n        string caddress;\n    }\n    \n    struct MedicalProfessional{\n        uint id;\n        string name;\n        bool valid;\n    }\n    \n    struct Verifier{\n        uint id;\n        string name;\n        bool valid;\n    }\n\n    struct Claim{\n        uint id;\n        address claimant;\n        int state;\n        string file;\n    }\n\n    address public admin;\n    \n    uint public nextDiseaseId;\n    uint public nextMedicalProfessionalId;\n    uint public nextClientId;\n    uint public nextVerifierId;\n    uint public nextClaimId;\n\n    mapping(address => Client)public clients;\n    mapping(address => MedicalProfessional)public medicalProfessionals;\n    mapping(address => Verifier)public verifiers;\n    mapping(uint => Claim)public claims;\n\n    event clientAdded(address, string,      string);\n    event medicalProfessionalAdded(address, string);\n    event verifierAdded(address, string);\n    event claimCreated(uint, address, uint);\n\n    constructor() public{\n        admin = msg.sender;\n        verifiers[admin] = Verifier(0, \"admin\", true);\n        \n        nextDiseaseId = 0;\n        nextMedicalProfessionalId = 0;\n        nextClientId = 0;\n        nextVerifierId = 1;\n        nextClaimId = 0;\n    }\n    \n    function addVerifier(address _verifierAddress, string calldata _name) external onlyAdmin(){\n        verifiers[_verifierAddress] = Verifier(nextVerifierId, _name, true);\n        nextVerifierId++;\n        emit verifierAdded(_verifierAddress, _name);\n    }\n    \n    function addMedicalProfessional(address _medicalProfessional, \n        string calldata _name) external onlyVerifier(){\n        medicalProfessionals[_medicalProfessional] = MedicalProfessional(nextMedicalProfessionalId, _name, true);\n        nextMedicalProfessionalId++;\n        emit medicalProfessionalAdded(_medicalProfessional, _name);\n    }\n    \n    function addClient(address _clientAddress, string calldata _name, string calldata _caddress) external{\n        clients[_clientAddress] = Client(nextClientId, _name, false, _caddress);\n        nextClientId++;\n        emit clientAdded(_clientAddress, _name, _caddress);\n    }\n    \n    function registerClient(address _clientAddress)external onlyVerifier(){\n        clients[_clientAddress].verified = true;\n    }\n    \n    function createClaim(string calldata _file) external registeredClient(){\n        claims[nextClaimId] = Claim(nextClaimId, msg.sender, 0, _file);\n        nextClaimId++;\n    }\n    \n    function checkClaim(uint id) external onlyMedicalProfessional(){\n        require(claims[id].state == 0);\n        claims[id].state = 1;\n    }\n    \n    function rejectClaimMedical(uint id) external onlyMedicalProfessional(){\n        require(claims[id].state == 0);\n        claims[id].state = -1;\n    }\n    \n    function approveClaim(uint id) external onlyVerifier(){\n        require(claims[id].state == 1);\n        claims[id].state = 2;\n    }\n    \n    function rejectClaimVerifier(uint id) external onlyVerifier{\n        \n    }\n\n    modifier onlyAdmin(){\n        require(msg.sender == admin);\n        _;\n    }\n    \n    modifier onlyVerifier(){\n        require(verifiers[msg.sender].valid == true);\n        _;\n    }\n    \n    modifier onlyMedicalProfessional(){\n        require(medicalProfessionals[msg.sender].valid == true, \"only medical professional allowed\");\n        _;\n    }\n    \n    modifier registeredClient(){\n        require(clients[msg.sender].verified == true);\n        _;\n    }\n}",
  "sourcePath": "/home/abhinav/Desktop/apps/Whisleblower-DAPP-master/contracts/Insurance.sol",
  "compiler": {
    "name": "solc",
    "version": "0.5.12+commit.7709ece9.Emscripten.clang"
  },
  "schemaVersion": "3.0.19",
  "updatedAt": "2019-11-16T14:01:52.225Z",
  "networkType": "ethereum",
  "devdoc": {
    "methods": {}
  },
  "userdoc": {
    "methods": {}
  }
}