{
  "contractName": "Whistleblower",
  "abi": [
    {
      "anonymous": false,
      "inputs": [
        {
          "indexed": false,
          "internalType": "string",
          "name": "",
          "type": "string"
        },
        {
          "indexed": false,
          "internalType": "uint256",
          "name": "",
          "type": "uint256"
        },
        {
          "indexed": false,
          "internalType": "address",
          "name": "",
          "type": "address"
        }
      ],
      "name": "logAdded",
      "type": "event"
    },
    {
      "constant": false,
      "inputs": [
        {
          "internalType": "string",
          "name": "log",
          "type": "string"
        }
      ],
      "name": "setData",
      "outputs": [],
      "payable": false,
      "stateMutability": "nonpayable",
      "type": "function"
    }
  ],
  "bytecode": "0x608060405234801561001057600080fd5b50610181806100206000396000f3fe608060405234801561001057600080fd5b506004361061002b5760003560e01c806347064d6a14610030575b600080fd5b6100a76004803603602081101561004657600080fd5b810190808035906020019064010000000081111561006357600080fd5b82018360208201111561007557600080fd5b8035906020019184600183028401116401000000008311171561009757600080fd5b90919293919293905050506100a9565b005b7fc2829927932c8451040e46cea4146adf0a825c4e59217872576bf50cc3cf9cf38282423360405180806020018481526020018373ffffffffffffffffffffffffffffffffffffffff1673ffffffffffffffffffffffffffffffffffffffff1681526020018281038252868682818152602001925080828437600081840152601f19601f8201169050808301925050509550505050505060405180910390a1505056fea265627a7a72315820c35c607b65e20872540c6e48fabc0baffdb0ba3a6a3e10dbf0ba3204810701d964736f6c634300050c0032",
  "source": "pragma solidity ^0.5.0;\n\ncontract Whistleblower{\n  event logAdded(string, uint, address);\n\n  function setData(string calldata log) external{\n    emit logAdded(log, now, msg.sender);\n  }\n}\n",
  "sourcePath": "/home/abhinav/projects/Whisleblower-DAPP-master/contracts/Whistleblower.sol",
  "compiler": {
    "name": "solc",
    "version": "0.5.12+commit.7709ece9.Emscripten.clang"
  },
  "schemaVersion": "3.0.19",
  "updatedAt": "2019-11-15T20:10:06.989Z",
  "networkType": "ethereum",
  "devdoc": {
    "methods": {}
  },
  "userdoc": {
    "methods": {}
  }
}